:2000000060400020E986000001CA011001CA011001CA011001CA011001CA011001CA011089
:1C00200001CA011001CA011001CA011001CA011001CA011001CA01103FCA011082
:20003C0000008001100082FFFDFF58003AFFBFF3FFFFFFFFFFFFFFFFFFFFFFFFFFFFFFFF63
:20005C00FFFFFFFFFFFFFFFFFFFFFFFFFFFFFFFFFFFFFFC5FFFFFFFFC5FFFFFFC5C5C5FFC6
:18007C00C5C5C5FF00000000FFFFFFFFFFFFFFFFFFFFFFFFFFFFFFFF2E
:200100003C000000000000000000000034010000000000000000000001000000000000006D
:1C01200000000000000000000000000001000000000000000800000000000000BA
:20013C00340000000000000000000000680100000000000000000000010000000000000005
:14015C00010000000000000000000000080000000000000086
:2001700030000000000000000000000098010000040000000000000001000000FFFFFFFFA5
:10019000FF00000001000000080000000000000057
:2001A0002C0000000000000000000000C4010000040000000000000001000000FFFFFFFF4D
:0C01C000FFFFFFFF08000000000000002F
:2001CC0034050000E401000099A1011095A70110A5C2011009B2011045B80110000000000B
:0801EC00000000002E000000DD
:2001F400280000000000000000000000140200000000000000000000FFFFFFFF00000000B1
:080214000800000000000000DA
:20021C00300500003002000069C201106DC101101FC2011095BA011000000000000000008E
:04023C00300000008E
:20024000300500005402000075C20110A9B601109DBF011049B601100000000000000000DE
:040260003100000069
:200264002400000000000000000000008002000000000000000000000000000008000000CC
:040284000000000076
:20028800240000000000000000000000A40200000000000000000000000000000800000084
:0402A8000000000052
:2002AC00240000000000000000000000C8020000000000000100000000000000080000003B
:0402CC00000000002E
:2002D00000000000A818002004000000000000000000000020000000700100003000000069
:2002F0001C020000BC1800200400000000000000000000000C000000300400001800000080
:2003100040020000C8180020040000000000000000000000240000004804000018000000FF
:2003300000000000D018002004000000000000000000000010000000A00100002C000000C4
:20035000CC010000D818002004000000000000000000000020000000640200002400000002
:20037000FFFFFFFFF818002004000000000000000000000028000000880200002400000067
:20039000FFFFFFFF08190020040000000000000000000000580000003C0100003400000043
:2003B000FFFFFFFF1019002004000000000000000000000010000000600400001800000058
:2003D000FFFFFFFF181900200400000000000000000000001C000000AC02000024000000CE
:2003F000FFFFFFFF2019002004000000000000000000000038000000F4010000280000003F
:20041000FFFFFFFF2819002004000000000000000000000054000000000100003C000000DA
:1804300018000000000000000000000040040000080000000000000050
:1804480018000000000000000000000058040000080000000000000020
:18046000180000000000000000000000700400000800000000000000F0
:080478000100000078BA000049
:040484000100000073
:0404880000000C0064
:04048C0000000D005F
:040490003200000036
:040494000200000062
:04049800F42100202B
:04049C00000200005A
:0404A0000000000058
:0404A40001CA011078
:0404A8000000000050
:0404AC00000000004C
:0404B0000800000040
:0404B4000000200024
:0404B80058210020A7
:0404BC00010000003B
:0404C000E018002020
:0404C400080000002C
:0404C8000000000030
:0404CC00000000002C
:0404D0000000000028
:0404D4000000000024
:0404D8000000000020
:0404DC00010000001B
:0404E0005422002082
:0404E400060000000E
:0404E800010000000F
:0404EC007820002054
:0404F0000000000008
:0404F4000000000004
:0404F80000020000FE
:0404FC0000000000FC
:020502002A00CD
:020504000100F4
:020506002500CE
:020508003000C1
:02050A003100BE
:02050C002E00BF
:02050E000100EA
:0105100001E9
:080514000300000030BA0000F2
:08051C000000000000000000D7
:0405240000000100D2
:0405280000000300CC
:04052C0087C401106F
:04053000380500008A
:040534003805000086
:0405380000000000BF
:04053C00800000003B
:040540008000000037
:0405440000000000B3
:04054800E018002097
:04054C009BAD000063
:040550002000000087
:04055400D8B9000012
:040558000CB80000DB
:04055C000DC30110BA
:04056000236A00000A
:04056400936E000092
:040568007587000093
:04056C007D87000087
:04057000080000007F
:0405740090BA000039
:0405780064B5000066
:04057C007CB500004A
:040580004CB5000076
:0205840008006D
:0205860009006A
:02058800010070
:02058A0000006F
:01058C00016D
:040590000000000067
:040594000000000063
:04059800000000005F
:04059C00000000005B
:0405A00025AB000087
:0405A400C58B000003
:0405A80055A3000057
:0405AC00F9870000CB
:0405B0006D72000068
:0405B400419600006C
:0405B8002D5E0000B4
:0405BC00C5A60000D0
:0405C0001D770000A3
:0405C40011C8011049
:0405C80021C8011035
:0405CC000800000023
:0405D0002400000003
:0405D400180000000B
:0405D80028000000F7
:0405DC0020000000FB
:0405E0003C000000DB
:0405E4000C00000007
:0405E80034000000DB
:2005EC002DE9F04FADF1740D05F0F6FFE54C04F1280004F1780105F02DFADFF89493E0607B
:20060C0049460AF00FFD01260821DFF89083ADF86010D8F80000ADF86260014618A88847DD
:20062C00BDF8640060801A98A06004F134000AF07FFC00254FF0040A04F194074FF47A7234
:20064C00DB4920612B4600953846CDF804A007F097F91F20314609F0A9F830468DF8080022
:20066C00AB46ADF80AB002AA8DF80CB03146ADF812B00820ADF80E004FF44870ADF81000C8
:20068C006420ADF8140040F2053001F01FFD40F2063002210DF10A0201F018FD04F15A05AE
:2006AC004FF442701B212A4601F010FD40F207300E2104F14C0201F009FD1B970E3D1C950F
:2006CC004FF44470314603AA01F000FD40F2113002210DF10E0201F0F9FC40F212300221E4
:2006EC0004AA01F0F3FC40F2133002210DF1120201F0ECFC4FF44570022105AA01F0E6FC40
:20070C00D84E5846152106F148020AF073FA04F11C000AF03DFC0620A02109F047F80720A1
:20072C00A02109F043F80820A02109F03FF80920A02109F03BF84FF0FF300AF026FD4FF0BF
:20074C00FF300AF01FFD0AF04BFA06F111020120122102F0C1FD02200521324602F0BCFD90
:20076C0005203246014602F0B7FD06F135020320132102F0B1FD721D50460C2102F0ACFDD1
:20078C0006F12307062012213A4602F0A5FD7F2004F070FB7F2814BF0A200F20052107F0D1
:2007AC006FFD07F077FF002851D107F0B5FD5FEA00084CD05E4630464FF4805106F0F0FCE4
:2007CC0006F58056F00CF6D05F4639E007F500304FF4805106F0E4FC5FEA00082ED004F55E
:2007EC00847A3D465E46504629464FF4807204F0B5FFF01900F500394FF480715246484655
:20080C0005F0B0FE5FEA000812D048464FF48071524607F05AFBA8789AF80210D8468842A4
:20082C0006D1E8789AF80310884208BF4FF0010806F5807605F58075300BD4D007F5805765
:20084C00780C08BFB8F1010FC0D007F069FF06F077FC07F0EFFC0AF0FFFA09F0D3FD06F09C
:20086C00A9FB0AF017FA06F03BFC04F120000AF0EBFA04F140000AF05BFB606104F1180049
:20088C0008F07AFF584609F066FBE06840490AF0C9FBC8480068D8464FF0050944F62061B6
:2008AC00B1FBF0FA08200A213C4FADF858004FF0FF36ADF85A1038681796014616A8884717
:2008CC00002840F0238108213846ADF848100927CDF818B00068ADF84A70014612A8884718
:2008EC00149E0028069640F00581BDF84C0010280CD16088BDF84E10884207D1304601781E
:20090C00B02903D10179083009F06CFF0698002800F0F08008200321ADF840001F4FADF89E
:20092C00421038681196014610A88847E2E0206909F08EFE071C00F0DD803E78781C761E26
:20094C0038D0761E40F0CB800078B978401E2BD0401E25D0801E1DD0401E15D0401E0CD017
:20096C00401E06D0801E40F0BA80084607F084FAB5E0084604F020FAB1E0084605F0B0F8FF
:20098C00ADE0C04620050020084605F011FBA6E015AA0000084604F0AFF9A0E094170020AA
:2009AC00084605F00DF89AE0084605F0BFFA96E0B5AC00000678701E51D0401E20D0801E7D
:2009CC0001283FD9801E02D0801E29D086E01B980AF04AFA10B91B980AF014FCE0680A2173
:2009EC00424608F0BBFCE0680F21424608F0B6FCE0681521424608F0B1FC05F001FF6DE01D
:200A0C001B980AF031FA10B91B980AF0FBFB1C9A40F207300E2182F80D8001F057FB5DE0B1
:200A2C0009F014FD09F0DCFC09F02AFC09F002FB08F0CCFC07F0FCF8E0680A21012208F081
:200A4C008DFC4BE009F002FD09F0CAFC09F018FC09F0F0FA08F0BAFC07F0EAF83EE04546FF
:200A6C0014E0C0464CB40000E0680F21012208F075FC50460AF082FCE0680F21424608F066
:200A8C006DFC50460AF07AFC6D1CEDB2052DEBDB4FF441700EA902F0B7F99DF839508DF8CB
:200AAC0031508DF834809DF83C108DF833809DF83D208DF836109DF838008DF837209DF85C
:200ACC003A308DF830009DF83B508DF8323008210CAA40468DF8355002F0FEFB26700820CC
:200AEC00ADF82800344EADF82A9030680B9701460AA8884720690AF03DFC00283FF417AF5D
:200B0C0004F02AFB09F090FC02F072FCA1882078CA082AD321F004010628A18018BF0228D5
:200B2C0003D11B980AF06EFB2078062805D140464146424609F0AEF82078022815D14646BB
:200B4C0011E0E0680F21012208F008FC50460AF015FCE0680F21424608F000FC50460AF0DC
:200B6C000DFC761CF6B2002EEBD060690AF002FC00287FF497AE60690AF0F8FB0646307AF0
:200B8C00012806D0022808D17089F16802F09AF803E07089F16803F08BFA0820ADF82000D7
:200BAC00054FADF8229038680996014608A88847DBE7C04674BA0000941700202DE9F04F63
:200BCC00064640F29421012541F22D00ADF10C0DC4F22231C4F2090040F81D5C0868002888
:200BEC00FCD043F6AC7E46F2440AC020C5F2000EC4F20C0AF4464AF8440CDEF80890DCF8B5
:200C0C00041046F25620C4F20800890807D271460A686FF00F0E4EEA1241017001E07221C9
:200C2C00017041F28C38C5F2000858F8D41CC1F304611629A8BF20396246926812175118F5
:200C4C00491C11F10A0FB8BF6FF0090100232C4625EAD96201F01F01C4F2203341F4F851B1
:200C6C00018324EA996E1A60002EC3F808E073D058F83C1CC1F38360C1F38F275FEA994175
:200C8C0067D249F3072CBCF1000F29D549F307214A42B1F1FF3F4FEA620215DA7F0805D12D
:200CAC00400806BF281C2F1C4FF6FF777F080CF1010C05D1400806BF281C2F1C4FF6FF7713
:200CCC00521E0CF1010CE9D1490809D37F0805D1400806BF281C2F1C4FF6FF770CF1010CE9
:200CEC00BCF1000F35DDBCF1020F4FEA6C020CF001031DDB4FF6FF717F0047F00107B9424F
:200D0C0007D2400040F001000F2892BF2F1C0F200F1C7F0047F00107B94207D2400040F04E
:200D2C0001000F2892BF2F1C0F200F1C521EE3D1002B0EDD7F004FF6FF7147F00107B942D1
:200D4C0007D2400040F001000F2892BF2F1C0F200F1C47EA004703E040F6FF77C0F20F0741
:200D6C000AF054F939460022002808BF2A1C48F20007C4F20C0738680028FCD04AF2080068
:200D8C00C4F20C0001613D600AB10AF045F9002E08BFD82109D058F83C1C58F83C0CC1F3D8
:200DAC00870100F0030041EA002188B2009040F2FF3200232C214AF20000C4F20C0006F0CF
:200DCC008EFE002E1ABF58F8100CC0F30D0B40F2FF3B0AF01BF90021002808BF291C3868CE
:200DEC000028FCD04AF20800C4F20C00C0F814B03D6009B10AF010F9002E04BF4FF0000BDC
:200E0C00C6F6880B0DD058F818BC0BF07C420BF47C010BF47C4011430BF0FC0B08434BEAB0
:200E2C00000B0AF0F3F80021002808BF291C38680028FCD04AF20800C4F20C00C0F80CB053
:200E4C003D6009B10AF0E8F8002E04BF47F28A6BC0F2680B0DD058F81CBC0BF47C020BF490
:200E6C007C410BF4707011430BF03F0B08434BEA000B0AF0CBF80021002808BF291C3868F4
:200E8C000028FCD04AF20800C4F20C00C0F808B03D6009B10AF0C0F8002E3AD058F8140C2B
:200EAC0043F6AC71C5F200014B68C0F303525B08C0F3034117D243F6AC73C5F200031B6885
:200ECC0043F3032C12EB0C0203D4102A02DB0F2200E0002243F30333C91803D4102902DB3B
:200EEC000F2100E0002141EA021100F47F4200F0F00E0B0400F00F0B222E42EA03024EEA02
:200F0C0002014BEA010B08D300F0804040EA0B0B03E043F6277BC0F2710B0AF077F8002140
:200F2C00002808BF291C38680028FCD04AF20800C4F20C00C0F804B03D6009B10AF06CF8B6
:200F4C00222E26BFD8F80000C0F30070281C4AF2400BC4F20C0B222E4FEA400040F02000AC
:200F6C008BF8090126BFD8F80000C0F34070281C202E40F010008BF809013CBF00200190B5
:200F8C000CD3D8F80C00C20C02F44072800D00F01C0100F003001143084301900AF036F82F
:200FAC00019A0021002808BF291C38680028FCD04AF20800C4F20C0002623D6009B10AF0E6
:200FCC002BF8202E26BFD8F80C00C0F301500020222E4FEA400040F060008BF80C0126BFE1
:200FEC00D8F80000C0F3C06100216FF07F00222E40EAC1008BF8010126BFD8F80000C0F31A
:20100C00455100214FF60040202ECFF6FF7040EA8100ABF89C0105D248F20000C4F23F0015
:20102C0001900BE0D8F80C000003820D00F47C11920500F4704011430843019009F0E6FFF0
:20104C00019A0021002808BF291C38680028FCD04AF20800C4F20C0002603D6009B109F048
:20106C00DBFF44204FF0880E8BF8C500002E8BF8C7E01ABFD8F80000C0F3C141002140F6FC
:20108C008406C9F3815041F03001C4F28C3600288BF8C81041D0401E07D0401E37D0042001
:2010AC00022106F0C0FE00214BE0284609F060F904460420214606F0B6FE042009F058F954
:2010CC008442FAD143F6AC70C5F2000050F8040C0104090C4AF8081CC0F3074E4AF804EC55
:2010EC00CAF8005031680029FCD0002240F2B411CAF80020C1F2000109680B68000E4FF064
:20110C006022072198474FF48060CBF800000420032106F088FE002113E00420294606F0F3
:20112C0082FE43F2BD704AF8080C4FF086094AF8049CCAF8005030680028FCD00021CAF83A
:20114C00001058F8200C4BF2700342F22C0E41F22D0C47F6180240F29449C4F20C0300F052
:20116C003F00C4F2090E8BF8CB0FC4F2090C1A80DEF800004AF8441CC4F260294CF81D1C61
:20118C0003B0C9F80050BDE8F08F70472DE9F04F0820ADF1740DDFF828B3ADF83800012058
:2011AC00ADF83A00DBF8000001460EA88847C54CBDF83C002082002666701098A0624FF616
:2011CC00FF70E08208F0C6F9B046C44D2070324633460120CDF800802946019004F1A800F0
:2011EC00139006F0CDFB0220CDF80080324633462946019004F1CC00129006F0C1FB0420F1
:20120C00CDF80080324633462946019004F1F000119006F0B5FB04F14A090420102231464B
:20122C00A070484605F002F804F15A0A10225046314604F0FBFF04F12C073E6004F10A05C5
:20124C002E70072060721021E6714A462672022008F09CF903201021524608F097F90420F4
:20126C003A46014608F092F913981490CDF85890CDF85CA04FF003081A9705F13A0013908D
:20128C0005F17F00159005F12E00189005F16000199034351B950AE06078062818BF07284E
:2012AC0005D1208AE18A1322C0B207F021FD08200A21ADF830004FF0FF35ADF83210DBF826
:2012CC0000700D950CA839468847002840F069813046082102900925ADF82010DBF8007035
:2012EC00ADF8225008A839468847DDF828A00028CDF808A040F05581BDF82410208A1029C9
:20130C0040F04181BDF82610884240F03C8155462A884FF6FF73A91C934200F02C8151465B
:20132C000F78A23F00F008812E3F40F02C818978B146002900F0D480891E00F0A880491EEB
:20134C0001297CD9891E4CD0491E23D0491E03D0083900F0E280E4E0119809F055FF0298C4
:20136C004778002F40F0DD80C1882184018961844089A084129809F077FD002840F0D180DC
:20138C00676B002F00F0CD803B68208C618CA28C9847F8E0A88808F0C8FD13984946062293
:2013AC0004F044FF26846684A684A8796073129809F02AFF119809F027FF4FF001094FF616
:2013CC00FF702779E0824FB9A879082814BF042005206070484609F023FBA2E084F8018027
:2013EC009FE06F78E37A27BB291D0A681398026089888180062767706889E082E8892084F9
:20140C00288A6084688AA084E878012B207308D11F2007F04FFC4FF47A714143129807F048
:20142C00F1FFE8786A892D1D0423294606F076FD7AE0687831286ED1E670042023E06F78DE
:20144C00002F68D1A878A78A6178032812D0E078257927B9012814BF2671E67006E00543F4
:20146C0004D01498394607F0CDFF61780729E4D1062008E0062908D0E778002F08BF84F8FA
:20148C00018051D0022060704EE00720FBE76B786F1C002B3FD1ED78A279ADB960780228E4
:2014AC0018D0072816D0062802D12079012811D1149809F0D9FC68B9012009F0B1FA09E035
:2014CC0094170020E4090020159BC0B2494607F02DF838703F78F7B923E0C0462DAA00006C
:2014EC006F78C7B9169A0220102108F06BF8179A4046102108F066F8ED1C29681898AF88DC
:20150C0001600125878029466279199B207C657007F00CF840B10820B5E7A888052109F0C3
:20152C0043FDB9F1010F2ED1276B002F2BD03F684FB36078B84726E06879132823D12889A3
:20154C00012810D1A07B02280DD1119809F05CFE6078062818BF072815D1207CE18A132228
:20156C0007F0C6FB0FE0052007F0A4FB0146119807F048FF07E00888C00B04D31A9A0420DE
:20158C00014608F01FF8029FDBF800004FB10821ADF81810ADF81A80CDF81CA0014606A8CA
:2015AC008847608A2779E17842082ED320F0010057EA0105608228D0234802886FB9E17979
:2015CC00207A8DF80C101B9F8DF80D003B680DF10E052B60B988A98001E08DF80C80607A03
:2015EC008DF81400A17A8DF81510D0B203A909F0D5FC48B10820276B60702FB13D681DB1B3
:20160C003868014608208847608A810806D320F002006082304605F029F9608AC108FFF46D
:20162C0046AE20F00400A77B60827F1E03D07F1E3FF432AE3BE601200090618BA28BE38B19
:20164C00208B06F0C1F832E6F40900202DE9F04F044609AF10461E46ADF13C0D002800943B
:20166C003A8801900D46ADF8302008BF002000F001824FF0000B471CCDF838B0ECE1252CF1
:20168C0040F0D78139787F1C01972D291CBF0E98ADF81E0005D10121781CADF81E10397828
:2016AC000190302918BF0E9805D101990A460120521C097801920E9A2A2984464FF0FF341D
:2016CC00069224D12346326808930199CDF828C0D21C0B4622F00302121D5B1C326052F8B4
:2016EC00042C09780193002A069218D50123ADF81E305242069212E0069F019A7B0003EB0C
:20170C00C703CB18571C303B019711780693302901DB3A29F0DBCDF828C0224608922E290F
:20172C002BD1019A11780E9B2A2902F10102019210D131680893C91C21F00301091D316032
:20174C0051F8044C002C48BF1C1C1178521C2346019211E01C460BE0019A630003EBC40494
:20176C0009191346A1F130045B1C117801932346302901DB3A29EFDB089308B106980A9031
:20178C006C2905D04C291CBF0E9AADF81C2007D1019901230A46ADF81C30521C09780192A1
:2017AC000DF1180C02AFCDF82CC00E9A0D976429099200F0AE80692900F0AB80BDF8303045
:2017CC00752979D0782975D06F2971D070294AD063293AD073291CD0019F012DA7F1010718
:2017EC00019714D9A7480068B4F1FF3F04D0A54284BF641C089400D80895844601A93246A3
:20180C0006AB6846E047014609988B44BBE01046BAE03068019FC01C20F00300001D306020
:20182C0050F8040C002B7F1C014608B993A001460D9109F061FA0990B4F1FF3F00F0A58079
:20184C00A042C4BF201C09909FE03068C01C20F00300001D306010F8041C8DF808100127A2
:20186C00099738468FE0082130680A91C01C20F00300001D306050F8047C144606A8824A3B
:20188C0007F00F01515C3F0904F1010400F8011DF5D1082C06DAC4F108043021641E00F8CA
:2018AC00011DFAD14021441E00F8011C604667E0082102E0102100E00A213268D21C22F08D
:2018CC000302121D326052F8048CA042BCBF201C0A900E9C06AF8A4681464046514607F01F
:2018EC00ABF86948405CB8FBFAF8B8F1000F04F1010407F8010DF0D1A14506DDA9EB040066
:20190C003021401E07F8011DFAD10B980D97C01B38E03168C91C21F00301091D316051F857
:20192C00041CA042BCBF201C0A9006AC81460F46002958BF924604D57F42A0F101094FF0EE
:20194C002D0A904638460A2107F076F84E48405C0A23B7FBF3F7002F08F1010804F8010D2A
:20196C00F0D1C14506DDA9EB08003021401E04F8011DFAD1BAF1000F18BF04F801AD0B98A3
:20198C000D94001B0990019F7F1CBDF81E400699091A0691BCB911E0012D0DD900986D1EA2
:2019AC0030B909F099FA38B1202009F08DFA03E020210170441C00940BF1010B0698401E70
:2019CC000690E9D509980446401E0990D4B9BDF81E00002840D00698401E06903CD4012D5D
:2019EC000DD900986D1E30B909F076FA38B1202009F06AFA03E020210170441C00940BF175
:201A0C00010BE8E70D994A1C0D920C78012D0DD9009B6D1E3BB909F05FFA10B1204609F010
:201A2C0053FA099802E01C705B1C00930BF1010BC9E7012D07F101070CD900986D1E30B95D
:201A4C0009F04AFA30B1204609F03EFA02E00470401C00900BF1010B17F8014C0198002C5A
:201A6C0000F1010001907FF40AAE009808B10E99017058460FB0BDE8F08FC046286E756C45
:201A8C006C2900C088BA0000ECB900002DE9F84FC64DC74ED5F8EF1FCC4C7368D5F8F30FDC
:201AAC008843C5F8F30F002BC5F8FF1F00F011817788012B00F0D680DFF8FCB2BF4FDFF82D
:201ACC0000A3DFF80093DFF80083022B72D0032B40F06A810024B06855F8312C74600028F9
:201AEC00A2F5C062B8BF404211460029B8BF494288422EDA111C54BF02206FF00100B269F7
:201B0C0000EB4100032190FBF1F18918B161F368706998420BD0B1F11002B8BF5242306908
:201B2C001038B8BF40428242B8BF88B209DB98B20090A04830214FF47F42082305F0CFFFFA
:201B4C00308A00909B4804214FF4F802122305F0C6FF5846046001688908FCD204600126A6
:201B6C0044600E203E6002F033FF50460468EFF3118584F3118849460820B0FA80F00A1A46
:201B8C00D07F431E0128D37704D14246106820F00800106085F31188EFF3118384F3118822
:201BAC000420B0FA80F0091AC87F421E0128CA7754D14EE055F8310CB0F5C06F17D00327E5
:201BCC00776001F021FD45F8397C0027276020688008FCD27748394660220523009105F027
:201BEC007EFF0126266020688008FCD364E0002171605846016002689208FCD20160012641
:201C0C0041600E203E6002F0E3FE50460468EFF3118584F3118849460820B0FA80F00A1AF9
:201C2C00D07F431E0128D37704D14246106820F00800106085F31188EFF3118384F3118881
:201C4C000420B0FA80F0091AC87F421E0128CA7704D14246106820F00400106083F311889E
:201C6C00BDE8F88F55F8312C02214BF2F52071605043000A37B95649096821F07F41401876
:201C8C00400801E0002171806060000CA0600126E660032745F8397C0027276020688008EA
:201CAC00FCD24448394660220523009105F017FF266020688008FCD345F8216C45F8397CD8
:201CCC000820C5F8FF0FC5F8F30F45F8396CBDE8F88F40480068006801462020884741F653
:201CEC001D574FF002080F2045F82D0C00214FF4C072072345F8297C2E48CDF8008005F024
:201D0C00EEFE012744F8047C54F8040C8008FBD3308845F81D7C012821D0032045F8390CE8
:201D2C004FF00009C4F8009020688008FCD22148494660220523009105F0D1FE276020681F
:201D4C008008FCD345F8217C45F8399C0820C5F8FF0FC5F8F30F45F8397C474623E04FF0C1
:201D6C000009C4F80C90032045F8390CC4F8009020688008FCD20F48CDF80080494660227A
:201D8C00052305F0ACFE276020688008FCD3202045F8210C45F8399C0824C5F8FF4FC5F85A
:201DAC00F34F45F8397C7760BDE8F88F39400C40FC22002000A00C4034600C4004800C4041
:201DCC0070BA00008F180020401E002038600C4010200940A00100102DE9F04F5FEA0009D3
:201DEC00ADF11C0D00F05581AC480068EFF3118280F31188DFF8C8B29BF80400012818BF85
:201E0C00012003D1022100208BF8041082F31188012800F03C8109F0A5FA0390A94804687B
:201E2C0004EB0B0009F0A6FA4FF00008464637460BEB0401CDF810800191B0B90C460846C8
:201E4C0009F08CFA0546A868400808D3E8682969024601209047C0B2002840F0108128468E
:201E6C0009F078FA0546AC42EDD1002F40F00B8109F06CFA0290059789480760012008F02B
:201E8C0077FA012804D1404606F056FE4FF00108844F3868806801463046884786481930B1
:201EAC000090D0F8FF0FB9F1000F00F08C80864C0A34E57905B10126A5790DB146F0020696
:201ECC0065790DB146F00406DFF8DC9165782DB1B86A006B49460246C88D904725782DB110
:201EEC00B86A006B49460246488D90476F4901200860B86A8069014646F0200088476C4D55
:201F0C00DBF80010286840F001002860480813D2684809F006F88246BAF1040FF8D0D5F892
:201F2C00180220F00300C5F81802B86C4068024660480321904701E001200490059800F0B7
:201F4C0009FBB86A0099806BD1F8FF1F8047049858B9B86C40680246564851469047D5F883
:201F6C00180240F00300C5F8180238688068014601208847504801688909FCD3B8F1010F57
:201F8C0002D1012006F0D8FDB86A4069014630468847B86A406B0146304688470128F8D1D4
:201FAC0066782EB1B86AC06A49460246C88D904726782EB1B86AC06A49460246488D9047BD
:201FCC003A49012008603A480168032221F00101016001988BF8042009F0CCF900280598A2
:201FEC0018BF01200125C0B9019C204609F0B6F90646B068C00806D3F06831690246042030
:20200C009047C0B230B9304609F0A4F90646B442EFD102E02948006880472148009F056085
:20202C00D7F8FF0F08F0F8FF019809F0A3F9059FC8B9019C204609F091F90646B068000982
:20204C0006D3F0683169024608209047C0B230B9304609F07FF90646B442EFD103E01748DC
:20206C0000688047022702988BF8045009F06AF905F004F8039809F061F938460AE00F4891
:20208C0000688047022701208BF80400F2E7062000E0022007B0BDE8F08FC04670BA000028
:2020AC000C4009409001001000B50000282008600C200840004003401410094064BA0000F7
:2020CC00401E002060BA00007C18002003462DE9F041A248A04DA3F2013C002714460E469A
:2020EC00BCF11A0F1CD8DFE81CF02A0125011E011B00FA00F400DD00CC00C500BE00B600DC
:20210C00AE00A6001B001B009D009000820078006B001B001B001B001B0052001B00260098
:20212C00272B06DA022E04D12188184607F03EFBCDE002270DE1012E40F003812846C178D7
:20214C00012900F0EE8002792178017182B9002900F0FF804078012800F0D480042800F051
:20216C00D180062800F0CE80052800F0CB80F0E02178002940F0ED804178032900F0CD80DD
:20218C00072900F0CA80052940F0E380C5E0012E40F0D7802078012840F0D38005F1F00083
:2021AC0008F062FE50B9384604F060FB071C40F0D0802846CC3009F027F8CAE01627C8E031
:2021CC00022E40F0BE8021880A29C0F2BA80B1F5486F00F3B6801E3015E0022E40F0B18033
:2021EC002188B1F5FA7F80F2AC801C300BE0022E40F0A78021880629C0F2A380B1F5486FA5
:20220C0000F39F801A300180A3E0022E40F0998021880629C0F29580B1F5486F00F39180D9
:20222C001830F0E7012E40F08C802178022980F288800B300DE0012E40F08380217804297A
:20224C007FDA0A3005E0012E7BD12178082978DA093001707DE0062E73D121683E3001608C
:20226C00A688868075E0012E6BD12178042968DA0830EEE7012E64D12178042961DCC01D05
:20228C00E7E7202E5DDA05F1890839461F22404603F0CCFF21463246404603F05FFAAE7184
:2022AC0039460FE0202E4CDA05F16A0839461F22404603F0BBFF21463246404603F04EFA35
:2022CC006E710121287C3246434606F02FF907463FE0022E35D121882846143093E7012E88
:2022EC002FD12846017901291BD0C2782178C17062B900292DD04078012803D0042818BFD9
:20230C00052826D1012008F08BFB22E0217801BB4178022918BF05291BD1007C08F044FD0D
:20232C0017E0122715E0042E0BD1216828462C3001600EE0102E04D128465A3005E0102E8E
:20234C0001D0182705E028464A301146102203F005FA3846BDE8F081E4090020E40900206B
:20236C002DE9F0411C4615468C4208BF854282BF00230022E5E0002C08BF002D0AD1002982
:20238C000EBF00286FF000006FF0000100F0E1F8BDE8F0815FF000085FF0000E002C08BFF7
:2023AC008D429CBF2C1C0025070C47EA01470E0CB44208BFBD429EBF5FEA044444EA1544A3
:2023CC005FEA0545070A47EA01670E0AB44208BFBD429EBF5FEA042444EA15645FEA0525F8
:2023EC00470847EAC1774E08B44208BFBD4200F29380870847EA81778E08B44208BFBD42F8
:20240C007CD8C70847EA4177CE08B44208BFBD4266D8070947EA01770E09B44208BFBD4248
:20242C0050D8470947EAC1674E09B44208BFBD423AD8870947EA81678E09B44208BFBD429E
:20244C0024D8C70947EA4167CE09B44208BFBD420DD8E60146EA5566EF01B14208BFB842DD
:20246C0001D3C01BB14158EB08085EEB0E0EA60146EA95664FEA8517B14208BFB84201D3C8
:20248C00C01BB14158EB08084EEB0E0E660146EAD5666F01B14208BFB84201D3C01BB14124
:2024AC0058EB08084EEB0E0E260146EA15762F01B14208BFB84201D3C01BB14158EB0808AE
:2024CC005EEB0E0EE60046EA5576EF00B14208BFB84201D3C01BB14158EB08084EEB0E0EBE
:2024EC00A60046EA9576AF00B14208BFB84201D3C01BB14158EB08084EEB0E0E660046EAAD
:20250C00D5766F00B14208BFB84201D3C01BB14158EB08085EEB0E0EA14208BFA84201D380
:20252C00401BA14158EB08085EEB0E0EA34208BFAA423EBF2D0A45EA0465240A89D37346F3
:20254C0042461E4617460B46024631463846BDE8F0817047F8B504460020C4F2090000688D
:20256C00800880F0BB8007F0CAFC42F22421C4F208010A68002112F0030F18BF0121D208AD
:20258C0028BF41F00201002C18BF41F0040143F69836C2F2000696F90720821A052A04DABB
:2025AC00B2798A4208BFB2886FD041F29C340F28A0F10F02C5F2000424DB02EB0212171218
:2025CC00072F88BF07273D46062D88BF062554F825C00423A64603EB85035EF80330CD0804
:2025EC00A3EB0C0303F0FF0C24BFC3F30725AC448D0824BFC3F30745AC444D0805D30CEBF1
:20260C00136C02E04FF0000C674654F82730CC0803F0FF0524BFC3F3072425448C0824BF43
:20262C00C3F3074425444C0828BF05EB1365A2EB07221FFA8CF3534380330022082B88BF4E
:20264C00012243F6B473C5F200031C681B684FF4D07C34275219241703F0FF0307FB14C4CB
:20266C005C434FF6FF73B4FBF2F2934238BF1A1C802892B2B28005DA10F1800F03DA6FF09A
:20268C007F0000E07F20F071B17142F20800C4F2090001681F2A4FF00000316008D340F223
:2026AC00FF11914206D25208401C9142FBD301E01F22B2800F3A4FF600714FF0350E12090C
:2026CC00C8F2A401C4F2090E40EAC2000143CEF8FB1F4FF0000CCEF8FFCFF8BD43F69E3215
:2026EC004FF6FD50082141F2300EC2F20002C0F2A4001170C4F2090ECEF80000F8BD704716
:20270C002DE9F04F8346ADF15C0D07F01BF84FF00009012805D108F0FEF8022808BF4FF019
:20272C00010954490868C0F38150012806D151F80C1C0120090E884040EA09094E494F4817
:20274C004F4D09780068C0F34600286006F0FAFF2C46012818BF206802D12068401C206047
:20276C0038B1FF2204F1400107467F1E01F8012BFBD1DBF80010002601F0FF02FF2A1BD023
:20278C008C46DE46324601270CF0FF01884204D907FA01F319EA030F01D0022067E00CF0B4
:2027AC00FF015EF804CF61181E4381F84020521C0CF0FF01FF29E9D1092001F0C3FDC4F84F
:2027CC0004B001A800212422082308F0B3FD4FF0010804F1240001AA8DF81C80414608F0AA
:2027EC00A5FD23682BB300276035BA4608FA07F019EA000F17D1064204BF07F0FF0141F4DC
:20280C00C04104D0E01990F840005BF820101D4802F08EFBF8B24FF0FF3108F045F82368DA
:20282C00C5F800A001E0042028607F1C2D1D9F42DCD30AA800213022082308F073FD002550
:20284C0004F1080010210AAB0F4A009508F066FD0E4A52F80D0C414620F4F85040F400501E
:20286C0042F80D0C0A4BC2F8FF1F2846196017B0BDE8F08FB43F0050A03B002080120840E2
:20288C0098380020007FC767C98500000D300940080009402DE9F84F0D4681462868D9F892
:2028AC000440D9F808B0002800F0A98008F032FD616D21B108F02AFD032028749FE00121B8
:2028CC002974656508F022FD94F8700030B194F859204C49A06E114307F038F8DBF800108B
:2028EC00486840F002004860D9F804C0D9F80830D5F800E09CF8582019681FFA8EF0904003
:20290C00B1F1804F1FFA80FA14BF3F4E3F4E4048AA6832B99CF858108F00C2590CF172011F
:20292C0008E09CF858108F000AEB0201C21952F8082C491EB2607160196801F10808C6F83C
:20294C000080B2684FEA0E1143F6F07E10390EEA01010A43B2601A68B2F1804F14BF2D4AF2
:20296C002D4A6E68002E04BFC0599E1D04D0C01950F8100C5644761E90601660C2F8048056
:20298C00906801439160DCF86C00DF6841689A68096847EA020088621968486A40F00300D8
:2029AC004862DBF80010486940F0010048616E6808F0B0FC194D0746287801280AD016F01D
:2029CC00704F02D1102006F019FE042006F016FE01202870384608F099FC207828B96168E8
:2029EC003834204608F08EFC10B10120BDE8F88F484600F08BFE2046002108F083FC002044
:202A0C00BDE8F88F000006800005002030040020E0B400001005002040040020A63B002051
:202A2C002DE9FE4F82460E460CAF307A3C8899461546800928BF082080F09780084602A990
:202A4C0007F066FB012808BF012000F08E80BDF80800DFF81CB142F6021100274FF0FF08EA
:202A6C00401A6BD048F2FF21401A33D0401E18D0401E61D1002C5DD1B9F1020F58D128784A
:202A8C00062825DAF06829880180F168584688425ED159460878497804F0BEFA4FF00208AE
:202AAC0059E0002C46D1B9F1060F41DA287810280EDCF06829464A4602F050FE04F0FAFD70
:202ACC00F16858460C30884242D14FF0010842E080273DE074BBB9F1100F29DCF0682946E8
:202AEC004A4602F03BFE5C46584600F10C0220781678012802D9401F12D029E061785578B6
:202B0C0003F00AFC1EB9284608F0B6F905E004F111012846324607F0E5FA08F089FA17E0AA
:202B2C00D2F8010004F11101324602F017FE0FE00D270DE00B270BE00A2709E0009401213B
:202B4C002A4650464B460191314604F09DFF0746B8F1FF0F08D05846001D006820B1006801
:202B6C0010B10146404688473846BDE8FE8FC046081A0020B0B5456884684D48297BADF11F
:202B8C00180D01291AD001462F7E227C637C494837F0010741EA020240EA03000190464844
:202BAC00009218BF011CA27C1143029195F859200323FF2A13D0014610460DE0A17C627CC1
:202BCC00237C41F00041024343F00043029195F85900009339490192014304230391FF21DD
:202BEC0005F15C004DF82310694602F033FFA866002808BF002058D0287B314951F8200061
:202C0C00012828D02068B0F1804F14BF22220A22217CA86E07F020FB2068B0F1804F14BFBC
:202C2C0021220922617CA86E07F016FB2068B0F1804F14BF24220C22A17CA86E07F00CFBAF
:202C4C0095F85910FF292FD02068B0F1804F14BF23220B2225E02068B0F1804F14BF2122FB
:202C6C000922217CA86E07F0F7FA2068B0F1804F14BF22220A22617CA86E07F0EDFA2068EE
:202C8C00B0F1804F14BF24220C22A17CA86E07F0E3FA2068B0F1804F14BF23220B2295F8A0
:202CAC005910A86E07F0D8FA012006B0B0BDC046000480A0004000800004C0A0002000808E
:202CCC00C8B400002DE9F04F04460D464D4E68782978ADF1140D01EB0021ADF800107188E4
:202CEC00BDF80000884217D1706940F6FF7200EB0110024203D1000BC0B208F0F9F9BDF8B1
:202D0C000010B079AA1C1023090108F0FBF97088401C81B2718007E007F08AFF20464FF6F5
:202D2C00FF7104F0B1F87188B088884264D10DF1020008F079F8BDF802004FF6FF718142B2
:202D4C0057D0BDF80200002853D0BDF80400814203D0BDF80400002843D1B288F088002721
:202D6C00110101F47043C5B203975FFA92F2C91A82181FFA81FB5FFA82FAAA4528DBAAEB31
:202D8C00050101F10108A8420CBF04240024AA45D8BFA34516DD284621460DF106020423C2
:202DAC0008F0ABF904270DF1060919F8011B039807F060F87F1E0390F7D1241DA4B2B4F5E4
:202DCC00805FE4DBF0886D1CB8F10108EDB2DAD10398002107F04EF8002107F04BF8ADF853
:202DEC000400BDF80400BDF80210884201D101F021FF07F01DFF02E0204604F045F805B055
:202E0C00BDE8F08F5C1900204D4B2DE9F04F0C46343B998BADF13C0D86460991587B0E905D
:202E2C00598B089158780D90198B0791988C0C90D97A588C0691D3F82CA00B90997A188CE9
:202E4C00059193F804900A90597A93F80C800491197AD88B0391D9795A7902919979DE8ADC
:202E6C000191D9789F8A00919978AEF5407C0025BCF11D0F10D8DFE80CF05D5653504E4CA0
:202E8C004A4743403E3C3937350F3432302E2D272422200F1D1B1A18BEF1270FA8BF02257A
:202EAC0049DA704605F006FF14E0DDF83880C146CDF834900D98059016E00C980B900B9810
:202ECC000A900A98074622E04433186820609888A08030E0099009980890089807900798EC
:202EEC000690069E268026E0059804900498039001E03E33E9E7039802900298009008E01F
:202F0C00019A03F1890111E003F16A010EE03846E0E700990EE03833D7E7C4F800A00AE013
:202F2C0003F15A0101E003F14A011022204602F015FC00E0217028460FB0BDE8F08FC046B3
:202F4C00180A00202DE9F04F8046D8F80450D8F808400F46ADF1540D08F0DCF995F8981076
:202F6C0004F10409012903D108F0D0F9002077E04FF0010B85F898B008F0C8F91FB90DA8B7
:202F8C0007F02AFF0DAFF86828B9D8F80800067B90F80DA002E0067890F801A0FF2EE5D00F
:202FAC00BAF1FF0FE2D0FF222F49304C139241EA0600119041EA0A011291201D11A902F04C
:202FCC0049FD00282060D1D031460D2207F044F9206851460E2207F03FF9387828707868D6
:202FEC006860387A002130220823E86001A808F099F9CDF81880002400941D4AD9F80010D5
:20300C0005F1100001AB08F089F901A824220823214608F08FF905F12C008DF81CB0594665
:20302C0001AA08F083F9287838B905F14800214601AA08F07BF90F486860AC672C72EC67F5
:20304C0099F8040001F07EF9404604F0DFFF05F18400094A00940421434606F0DBFE4046AB
:20306C0015B0BDE8F08FC04600200084783B0020DD3F000039B10000B5AE00002DE9FE431E
:20308C00002A894607464CBF47F6FF74141C002F08BF00205FD03B88002B31D03D480088B2
:2030AC00214698422ADA3C4A1088984215DA3B4A168826B929A2484605F012FA1CE0384800
:2030CC00019100260268CDF8009036490296154618466A46A847029D13E03348026800E0A7
:2030EC00126822B110898342FAD1121D00E004221268484605F0F4F9054602E01CA2DAE783
:20310C000025601B26DD388828B1611B48461BA205F0E6F94519B868E0B1D7F80480661BE9
:20312C00B8F1000F0DD0404607F0E6FD401DB04207DC611B484612A2434605F0D1F94519F8
:20314C00661B122E06DBBB68611B48460EA205F0C7F945192846BDE8FE83C0467B6D6F647C
:20316C00756C652D726F70653A25787D00C046C07B6D6F64756C652325647D003A2000C0BC
:20318C00222573222C2000C06C696E652025643A2000C04656BA0000FEB900008A05000034
:2031AC008CBA0000C19900007C2300202DE9F04304466668A5680F46ADF1540D08F0AAF848
:2031CC0096F8A4102D1D012903D108F09FF8002076E04FF0010986F8A49008F097F81FB9FA
:2031EC000DA807F04DFD0DAF4FF00008C6F854803869306178697061387E3076387B3073A2
:20320C0038783070786886F87080706078694146092828BF494686F85810687801F092F8E4
:20322C00204604F081FBE87B86F859002046FFF7A1FC50B9687801F0CBFB08F06BF886F800
:20324C00A48008F063F8444639E001A841463022082308F067F80694CDF800801A4A297860
:20326C0006F11C0001AB08F059F8307878B901A841462422082308F05DF806F138008DF8BF
:20328C001C90414601AA08F051F8104800E0B868B06003F091FC317BF066012906D1B06EFA
:2032AC000B4907F0BFFEB06E00B1846006F19000084ACDF800800421234606F0ABFD204697
:2032CC0015B0BDE8F083C0461939000041B10000A193000085B000002DE9F0470C469046DD
:2032EC00DFF8F890414D3F4F3D493F4AD9F8003008284FF00006ADF1180D69D8DFE800F007
:20330C005F5B4C4844403A1105C0072C59D14046828805F108018A8087798F7100680860F9
:20332C0057E003940420ADF80A004FF0080AADF808A002A89847D8B904980746C0B16968FD
:20334C0005F1170088420BD005214846ADF802106A68ADF800A0006801920146684688476E
:20336C0038464146224602F0F9F96F602C7030E013262EE0142C24DC01F11505294601E092
:20338C00142C1EDC0D460BE0142C1ADC3D4606E0142C16DC3D4603E0142C12DC154615359F
:2033AC0028463146152202F041FF28464146224602F0D4F90DE0142C03DC1546DEE7082C37
:2033CC0001D0182605E0404642686A394A60A5E70226304606B0BDE8F087C04694170020A3
:2033EC001D160020F3150020C9150020A41500202DE9F0413E4F3878002876D03D4C20894B
:20340C0010F07F0F00F07F086DD005F0AAFE3A4E21783578A0700DB902293AD12279C30980
:20342C0017D2400824D304F1140005F023FE04F11A0005F0E3FDE578E088002D08BF217803
:20344C0016D00021E17021784FF47A7292FBF0F009E0521CD0B20228207109D1E0884FF4BA
:20346C007A72B2FBF0F002B2500000EBC200E0600025022935700CD12089C00909D304F1C1
:20348C00200000F0C1FA052822D008B104F0B6F82178E66816B901291BD124E0022904F1EB
:2034AC00140509D0022020700026267100F0B6FF10B1404601F0F4FA2089000A02D3E06804
:2034CC00401EE060002012212A4603F011F80AE0E560002020710126267000F09FFF10B197
:2034EC00607800F053FE00203870BDE8F081C046A43B00202C200020A33B00202DE9F04311
:20350C000646ADF11C0D07F0F9FE06F04BFB4FF000090546CDF8089007F0B4FD30F00100A9
:20352C0002D00298A84202D16FF0040068E070684C4658B1B0F1FF3F05D001A906F002FBE7
:20354C0030B107465BE04FF0FF3000E02046019007F0D0FE0199012701EB000802E01346FB
:20356C003DE001936868019907F0CCFE00282FD003A804F0DFFAE0B9BDF81000694606F0C1
:20358C00F9FA90B9B268BDF80000BDF812101346059A984748B1BDF80000BDF81210B081B0
:2035AC00059BF1814F46336112E0059902A806F04BF90198641CB0F1FF3FD3D00028D1D0EC
:2035CC0007F098FEB8EB000302D001989842C8D2029E07F023F905F1080146B1334653F860
:2035EC000C2C002ABBD10A6843F80C2C0E6007F0ABFA24B1686807F079FE641EFAD1384604
:20360C0007B0BDE8F08370472DE9F843804607F0FDFC002100B901213A4D2D1F286800288A
:20362C00FCD0DFF8DC90012609F10407FC6A2E6009B107F0F1FC3448C4F3072100F1080459
:20364C00616007F0E3FC0146002001B93046014628680028FCD03F682E6009B107F0DCFCA7
:20366C00C7F38441A8F5C060A160B8F5C06F2060B4BF6FF001030223626803EB400303208C
:20368C0093FBF0F00918104602290FDB1E290BDB3F28B9BF521C401C3F22101CE260302926
:2036AC00B4BF10391F210DE0E0600BE010F13F0FACBF401E6FF03F00E06011F1100FACBF68
:2036CC0010310021216180B24FF47F42082330210090484604F003FA0096484604214FF4AD
:2036EC000032112304F0FBF9208A04214FF4F80212230090484604F0F2F9BDE8F883C0460C
:20370C0000A00C4004800C40FC2200202DE9F04707467C68BE6807F0FDFD0834E16C00295C
:20372C0068D007F0F3FD3168486820F0020048603168486A20F003004862606EF56841687F
:20374C00B268096845EA0200C1F804053168486920F00100486130684FF00108C0F82080A3
:20376C003068B0F1804F14BF40F201104FF48070224909688847384604F0D6F8E06CD0F8ED
:20378C0004A007F0C7FD1E4D8146287850B11AF0704F02D1102005F08BFC042005F088FC06
:2037AC0000202870484607F0B1FDE16C087C042802D003200874E16C606E4368B268F0686C
:2037CC001B68454610438540DD623068B0F1804F14BF0C480C48026808689204A0EB925018
:2037EC00401E0860206800230246E36438469047BDE8F08707F08AFDBDE8F087780000102A
:20380C00A63B002008050020380400203A482DE9F04F0821ADF11C0D0068ADF810100146D7
:20382C000120ADF8120004A88847374CBDF8140060800698A06003F043FD04F10C0006F035
:20384C00B5FF4FF0000884F800804FF47A76A68006F016FD02206421012207F0EDF84FF01E
:20386C00FF3104F1100001F035FE2448244D07682448B5FBF7F9B0FBF7FA38E0012006F0C0
:20388C0027FD484607F07AFD02A804F0DFFE8346404606F01DFDBBF1000F1CD002A801A927
:2038AC006A4600F0A5FA9DF805308DF809309DF804208DF808209DF806008DF80A009DF810
:2038CC0002108DF80D109DF801308DF80C309DF800208DF80B204046062102AA02F024FFCE
:2038EC00A0887043401BB0FBF7F007F047FD20780128C3D05046F8E79417002074BA0000F7
:20390C008038010040420F00700D00202DE9F0470646B1680A687468D06908341062400885
:20392C0042D2606E40680268CD68D2F80405284206D00B68586A20F002005862C2F804552B
:20394C00D2F804258868024258D00A68506A20F001005062606E406889680068C0F804157D
:20396C00E06C00250574E76CD7F804A007F0D2FCDFF88C80814698F8000050B11AF0704FC2
:20398C0002D1102005F094FB042005F091FB40460570484607F0BAFC2068E5643946024621
:2039AC0030469047BDE8F0870A68506920F001005061E76CFFB9506820F002005060506A66
:2039CC0020F003005062606E8B684468CF682168B2F1804F47EA0300C1F804050CBF4FF473
:2039EC00807040F20110074909688847304603F09BFFBDE8F0873046FFF788FEBDE8F087CB
:203A0C00A63B002078000010FEB53D4C05460621601C017007F07AF918B907F009FB002020
:203A2C00FEBD002601206821667002F075FC2220694601228DF80000372006F053FB08B9C1
:203A4C000520607007F0F4FA6078002818BF301C54D101200C2102F05FFC022069460122A9
:203A6C0007F093F800283CD09DF80000400836D303200DF10101072207F087F868B39DF82C
:203A8C000700000927D29DF802709DF801009DF804609DF803109DF806309DF8052040EA24
:203AAC00072041EA062142EA032200B2288009B2698012B2AA80B4F908305843001228800A
:203ACC00B4F90A00414308126880B4F90C0042431012A88007E0032004E0042002E00220FF
:203AEC0000E00120607011208DF80000694601220A2006F0F7FA07F09BFA6078FEBDC0462B
:203B0C0090210020FEB5384B05461888AB8814460F4698422BDA35480088984216DA34489B
:203B2C00008888B10097002C54BF111C47F6FF71304800680191002102912F496A4606466E
:203B4C001846B047029E18E01CA211E02B48006800E0006820B101898B42FAD1001D00E0AA
:203B6C00042002682146384604F0BAFC04E018A22146384604F0B4FC0646002C02D4A01BEC
:203B8C000A2806DB2B68A11B384614A204F0A8FC8619A88978B1002C06D4A86807F0ACF841
:203BAC00A11B401D884206DCAB68A11B38460CA204F096FC86193046FEBDC0467B6D6F6422
:203BCC00756C652D726F70653A25787D00C046C07B6D6F64756C652325647D00257000C017
:203BEC0028272573272900C056BA0000FEB900008A0500008CBA0000C19900007C2300200D
:203C0C0038482DE9FC4700680068014620208847354DDFF8D8A04FF002080F2000214FF4EC
:203C2C00C072072345F82D0C41F61D5045F8290C5046CDF8008003F052FF2D4C012644F895
:203C4C00046C54F8040C8008FBD3DFF8A890B9F8000045F81D6C01281FD0032045F8390CF3
:203C6C000027276020688008FCD23946504660220523009103F033FF266020688008FCD3D2
:203C8C0045F8216C45F8397C0820C5F8FF0FC5F8F30F45F8396C464620E00027E7600320AB
:203CAC0045F8390C276020688008FCD2CDF80080504639466022052303F011FF26602068FC
:203CCC008008FCD3202045F8210C45F8397C0824C5F8FF4FC5F8F34F45F8396CC9F80460A8
:203CEC00BDE8FC87A001001039400C4000A00C4038600C40FC2200202DE9F04390460A687B
:203D0C00D8F800501678814600271C46ADF1140D3846531C242E0B6053D112F8016F5B1C1B
:203D2C004C2E0B600ED1A268ED1C25F003052D1D55F8040C4946FFF7E5FE2168E76001277C
:203D4C00091A2160462E1AD1ED1C25F003052D1D55F8040CED1C029025F003052D1D55F838
:203D6C00040C002749460390A268ADF8047001A8FFF784F92168E7600127091A2160532E82
:203D8C001FD1ED1C25F003052D1D55F8040CE061C8F80050208B0090A168E269D9F80000A9
:203DAC004346FDF753FCD9F80050002715B14119C9F80010D8F800502168E760091A0127B7
:203DCC002160662E0AD1238B23B9ED1D25F00705083503E0ED1C25F003052D1D1FB9E16980
:203DEC000E700127E760C8F8005005B0BDE8F083F8B53A4BC578047944EA05242501B3F9D8
:203E0C000270447990F800C045EA24151C88EE10A6EB4406C4EB251464432513B3F9044083
:203E2C0077436C43A41304EBE724877804EB840580352E12457845EA0C20B3F90A500E6064
:203E4C00000140EA271E6010A0F57A40811049434C136C43B3F9085045436D1005EBE4051A
:203E6C004FF4004404EBA544DD886543EF1331D09C46BCF90E40BCF91030BCF90C50164E78
:203E8C00C91260434B4340F63544290403EB400301EBA30104FB1E65081304FB1050C10FA1
:203EAC0019BFB0FBF7F040004000B0FBF7F0BCF91410BCF91650BCF91240C30886085B4388
:203ECC0071435B0B49136B4301EB2331641800EB24101060F8BDC046000050C34C3B0020F2
:203EEC00F8B507F093F8314C256805F00C000C2855D0E8082ED22E480068EFF3118780F368
:203F0C0011882C4EB068002107F0ECF97169B269091A8A4238BF002187F311882648006888
:203F2C00884217D22548264A264D036812682868B3FBF2F22018891A07F0D0F92868201808
:203F4C0007F0C8F90120FDF747FF2868201807F0BDF925E0280922D21B48690939BF01686D
:203F6C0021F00101016841F0010102460160D2F898004FF0805440F00300C2F89800D4F817
:203F8C00B8018069014620208847D4F8B8010F4C806B2168804701202060206800E030BF0A
:203FAC0007F03AF802F070FEF8BDC046401E002070BA00007801002068BA00006CBA000028
:203FCC0074BA000058BA00008C2108402C200940F8B5064635480068B46875684068014645
:203FEC0020688847226801210835C2F81C1868B12B78FF2B0AD0FF214009297051D204207E
:20400C00C2F80408022007F0C9F84AE02878002847D0401E13D0401E02D0FD3844D03DE014
:20402C00D2F80828A86E0270A86E401CA866EF6E7F1EEF6619D0012F88BF092127E06F6EB5
:20404C007F1E6F6613D1EF6E7FB10220E96D28702268097C012F4FEA410141F00101C2F8BA
:20406C00001894BF03210B2113E004210DE0286E22680078C2F80808286E022F00F1010059
:20408C00286604D2EF6E17B905210020287022680220C2F8041807F081F8F8BDFF20287047
:2040AC00F8BD304603F0BCFBF8BDC046AC010010F0B50C460746ADF11C0D07F0A1F810B14B
:2040CC00684604F057FAE179A0792F4D002600EB01206E808010A880E079A17901EB00219A
:2040EC008A10201D694606F069F9211D00283AD1A968384606F068FE400831D338461B2174
:20410C000822334606F048F9059048B305F1180009212A4606F058FB08224189ADF812206D
:20412C00059CADF810109DF800002070BDF800100598091241709DF802108170BDF802204B
:20414C0001AD1212C2702968031D32463846196004A906F0D1FA18B104A81B2106F042FBDD
:20416C0006F066FD0EE0084606F004FD6861000BE88006F061FE204604F0DEFB38463146EE
:20418C0002F082FE07B0F0BD5C190020F8B5064606F0BCFD00284FD00120682102F0BCF869
:2041AC0000284BD02E4D09202C1D0122207021466B2005F097FF00283ED007202871214636
:2041CC0001226C2005F08EFF002835D001271D2021462F713A4605F085FF00282CD040208C
:2041EC00287121463A46382005F07CFF20B3C020287121463A46692005F074FFE0B12E7117
:20420C001F2021463A4605F06DFFA8B10620287121463A461E2005F065FF68B1292028717A
:20422C0021463A466B2005F05DFF28B1E91C1C203A4605F057FF18B906F0FAFE0020F8BD36
:20424C003A2021463A4606F0A0FC06F0F1FE002129706869034905F079FB3846F8BDC04621
:20426C00902100200700068031482DE9F04F08214FF0010BADF1140DADF804100068ADF80D
:20428C0006B0014601A888472D4DBDF8080068800398A86003F0FAF805F10C0006F0DAFA2A
:2042AC004FF47A764FF000090422AE80484685F80090014606F0E4FB29785846024606F0EF
:2042CC00DFFB06F098FF022064215A4606F0D8FB4FF0FF3105F1100001F0FCF81549164845
:2042EC00164F0C68B0460646B0FBF4FA1AE0584604F002FC504607F041F80DF102006946FF
:20430C0001F034FC484604F0F7FB484604216A4602F0EAFBA88808FB00F0801BB0FBF4F075
:20432C0007F02CF828780128E1D0B7FBF4F0F7E79417002074BA00003832040040420F0070
:20434C00E01200202DE9F04105462E480068EFF3118880F311882C4A505D411C00285155FA
:20436C0049D12A4CA900675C07F03F003F280C4401D0FFF7E7FF607800F03F003F2801D05C
:20438C00FFF7E0FF668837F07F0019D1F80911D24FF08054D4F8B80140690146304688470D
:2043AC0004F5DC742068406B0146304688470128F8D120E0164850F82610012088471AE031
:2043CC004FF08054D4F8B801C069014630468847D4F8B801406A014630468847D4F8B80144
:2043EC00C06A01463046884701210A4A0A48116001688908FCD388F31188284605F090FFF3
:20440C00BDE8F08170BA00007C18002000B50000941800202820086028200840F8B5334DAE
:20442C002F49686905F092FAFF20A87000242C7068216C70012001F06FFF002808BF271C98
:20444C004CD02C4680200122211D20716B2005F049FE06F0EDFD234923480D68B0FBF5F0AD
:20446C0006F08CFF03F0F8F8261D071C36D0022003F086FC06F04AFC60B304F095F958B3ED
:20448C0001200C2101F048FF30B30F203070314601220A2005F026FE42F21070B0FBF5F0B7
:2044AC0006F06CFF04F10E011020032206F06DFB04F10E0140B108788030208148788030A2
:2044CC00608188788030A08101220B203146227105F008FE06F0ACFD04F0EEFA3846F8BD1D
:2044EC000700008074BA0000A0860100902100202DE9FF4782460D460CAF287A3F88994689
:20450C001446800928BF082055D2084602A905F0FFFD012808BF01204DD0BDF80800DFF8CA
:20452C009C8042F60211FF26401A2ED048F26311401A012827D827BBB9F1010F1FD1BDF81A
:20454C0008104AF666200027884202D12178032913DA2178EA681170BDF80810884205D023
:20456C00E968404688421AD13E461AE0E9684046401C884213D1012613E080270FE00D2760
:20458C000DE00B270BE00A2709E000970121224650464B460191294603F076FA0746FF2EC5
:2045AC0008D04046001D006820B1006810B101463046884738460090BDE8FF87201F0020EE
:2045CC002DE9FE4F82460D460CAF287A3C8898469146800928BF082056D2084602A905F0CD
:2045EC0097FD012808BF01204ED0BDF80800DFF89CB042F602110026FF27401A2ED048F2E3
:20460C003F11401A34D0401E14D0801E24D10CBBB8F1010F1CD199F800000A2808DBE968A7
:20462C000870E9685C46601C884221D1022721E080261DE074B9B8F1010F09D199F80000AD
:20464C00E9680870E9685C468C4211D1012711E00D260DE00B260BE00A2609E000940121BE
:20466C004A46504643460191294603F00DFA0646FF2F08D05846001D006820B1006810B115
:20468C000146384688473046BDE8FE8FF41B00202DE9FE4F82460D460CAF287A3C88984626
:2046AC009146800928BF082056D2084602A905F02FFD012808BF01204ED0BDF80800DFF87A
:2046CC009CB042F602110026FF27401A2ED048F21F11401A34D0401E14D0401E24D10CBB6F
:2046EC00B8F1010F1CD199F800000A2808DBE9680870E9685C46601C884221D1022721E044
:20470C0080261DE074B9B8F1010F09D199F80000E9680870E9685C468C4211D1012711E014
:20472C000D260DE00B260BE00A2609E0009401214A46504643460191294603F0A5F90646D5
:20474C00FF2F08D05846001D006820B1006810B10146384688473046BDE8FE8F8C1C002026
:20476C002DE9FE4F82460D460CAF287A3C8898469146800928BF082056D2084602A905F02B
:20478C00C7FC012808BF01204ED0BDF80800DFF89CB042F602110026FF27401A2ED048F212
:2047AC00FF01401A34D0401E14D0401E24D10CBBB8F1010F1CD199F800001E2808DBE96882
:2047CC000870E9685C46601C884221D1022721E080261DE074B9B8F1010F09D199F800000C
:2047EC00E9680870E9685C468C4211D1012711E00D260DE00B260BE00A2609E0009401211D
:20480C004A46504643460191294603F03DF90646FF2F08D05846001D006820B1006810B144
:20482C000146384688473046BDE8FE8F201D00202DE9FE4F82460D460CAF287A3C88984656
:20484C009146800928BF082056D2084602A905F05FFC012808BF01204ED0BDF80800DFF8A9
:20486C009CB042F602110026FF27401A2ED048F27F11401A34D0401E13D0401E24D10CBB6E
:20488C00B8F1010F1CD199F800000A2807DBE9680870E9685C468C4222D1022722E0802673
:2048AC001EE07CB9B8F1020F0AD1E868494609880180E9685C46601C884211D1012711E0FF
:2048CC000D260DE00B260BE00A2609E0009401214A46504643460191294603F0D5F8064605
:2048EC00FF2F08D05846001D006820B1006810B10146384688473046BDE8FE8FB01A002063
:20490C002DE9FE4F82460D460CAF287A3C8898469146800928BF082056D2084602A905F089
:20492C00F7FB012808BF01204ED0BDF80800DFF89CB042F602110026FF27401A2ED048F241
:20494C006F11401A34D0401E14D0401E24D10CBBB8F1010F1CD199F800000A2808DBE96874
:20496C000870E9685C46601C884221D1022721E080261DE074B9B8F1010F09D199F800006A
:20498C00E9680870E9685C468C4211D1012711E00D260DE00B260BE00A2609E0009401217B
:2049AC004A46504643460191294603F06DF80646FF2F08D05846001D006820B1006810B174
:2049CC000146384688473046BDE8FE8FB41D00202D492DE9F0410968EFF3118881F31188E8
:2049EC002A4B195C4A1E01291A5449D12849800045180E5C6F8836F07F0019D1F00911D28D
:204A0C004FF08054D4F8B801806901463846884704F5DC742068406B01463846884702283B
:204A2C00F8D120E01D4850F82710002088471AE04FF08054D4F8B801006A0146384688473E
:204A4C00D4F8B801806A014638468847D4F8B801006B01463846884701210E4A0E48116082
:204A6C0001688908FCD306F03F003F2801D0FFF7AFFF687800F03F003F2801D0FFF7A8FF6C
:204A8C0088F31188BDE8F08170BA00007C18002000B5000028200860282008409418002041
:204AAC00BCB5074606F032F900285AD02E4C207840BB3FB306F02AF910B30120682101F043
:204ACC002BFCF8B10920211D207101226B2005F009FB251DA0B13F202870294601226C20B3
:204AEC0005F000FB0021217050B1E11C1C20012205F0F8FA20B13A202946012206F045F8D4
:204B0C0006F096FAF8B2277040B380F0FF0020716821012001F000FC28B3211D6C20012270
:204B2C0005F0E0FA06F084FA247806F0EFF8C4F38014B0B103F038FEA8B101200C2101F040
:204B4C00EBFB80B1002C0CBF00201120694601228DF800000A2005F0C5FA02E003F0ACFF35
:204B6C00BCBD06F065FABCBD902100202DE9F04782460E467068DAF80810DAF8045000249C
:204B8C0001F1040810B9F06800284ED0287801280FD106F0BFFBA96F39B1E96F8E61EE67AD
:204BAC0006F0B4FB0120BDE8F087AE67EE6706F0ADFB06F0AFFB1E4F81463878012804D07E
:204BCC00042004F01BFD01203870484606F09EFB05F12C094FF0FF31484606F093FBD8F837
:204BEC00000006F06FFB5046314601F075FED8F8000006F063FB287898B905F148004FF046
:204C0C00FF3106F07FFB06F085FB0646387818B1042004F04DFA3C70304606F077FB287A22
:204C2C0000B90124484606F061FB2046BDE8F087A13B0020F0B54FF4F0204FF48051ADF182
:204C4C00140D02F0ADFA2A4D4FF4F0201021AA1C01F088FC4FF4F83004216A4603F035F9F7
:204C6C000098B0F1FF3F2CD04FF0805606F5EC7420681E4F006801210A46034638469847D0
:204C8C00D6F8D801406801210246384690474FF4F83005F05EFD4FF4F8363046102101AA7C
:204CAC0003F013F938B101A83146102205F042FD1036700CF1D020684068002102463846E0
:204CCC0090474FF4F8300068B0F1FF3F0CD0E88929898000890002468B18A3F5F833002B5E
:204CEC00C8BFC91A034B984705B0F0BD004003404423002001F001001CB52D4C401E02D039
:204D0C00401E44D01CBD06F0B1F9400931D32089FF2831D00120694604F0E8FABDF8000023
:204D2C0010F07F0F18D0BDF800002081022001F077FF05F0EBFFA8B11E48006841F2883120
:204D4C00B1FBF0F006F01AFB04F076F9BDF8001041EA0020208105E0BDF800002081002041
:204D6C0001F05EFF04F108020120022101F0C0FB07E0FF20083420800120FF21022205F0AE
:204D8C0077FC00201222014605F072FC1CBD02200DF1020104F0AAFA9DF80200410001EB3E
:204DAC00C001E18004F1280002F096FF1CBDC0462C20002074BA000070B52C4E2C4D012867
:204DCC0006D068BB31460020491C05F001FC27E03146012005F0FCFB34462078022817D032
:204DEC00621C0020012102F0CFFE28680A21002204F0B4FA28680F21002204F0AFFA606862
:204E0C0006F064FA28681521002204F0A7FA07E006F02CF9621C60700121002002F0B4FE7F
:204E2C0031460878012820D1344628686178490834BF002201220A2104F090FA28686178D7
:204E4C00890834BF002201220F2104F087FA61786068C90807D206F039FA2868152100227C
:204E6C0004F07CFA70BD06F035FA70BDC42100202C05002038B52D4C054600206908A4F110
:204E8C000104207009D300F0B7FC002808BF207803D0207840F001002070A90809D301F0C1
:204EAC0026FF002808BF207803D0207840F002002070290909D300F0EDFC002808BF20789F
:204ECC0003D0207840F008002070E90809D303F064F9002808BF207803D0207840F0040050
:204EEC002070690909D302F0B7FB002808BF207803D0207840F010002070A90909D303F0E1
:204F0C00BBFD002808BF207803D0207840F020002070E90909D305F028FF002808BF20788A
:204F2C0003D0207840F04000207038BD093B0020F8B50D46EEB2290824BF27494D40274B7E
:204F4C00B400DFF89CC0195900EA05020CEA020200F4E02C85EA0107BCF5E02F00EA0707D2
:204F6C0021EA0001C7F3006742EA010201D1510E14D300F4E0210F4310D002F4E027B7F5E1
:204F8C00A02707D0B7F5803704BF22F4003242F4A02203E022F4803242F4C0221A51114C76
:204FAC00C10D04D3C5F38052A4F180018A55000E11D306F0AFF9290E03D201220021B240EF
:204FCC0002E00122B24011465034236893431943216006F09BF9F8BD006000A0001008401E
:204FEC00007F077F802002402DE9FE4F82460D460CAF287A3C8898469146800928BF0820D2
:20500C0049D2084602A905F083F8012808BF012041D0BDF80800DFF884B042F602110026A5
:20502C00FF27401A22D04AF2C031401A0BD0401E1AD1BCB9B8F1010F12D199F80000E96854
:20504C00022708701EE06CB9B8F1080F08D149460A6858460E30496802600127416011E03D
:20506C000D260DE00B260BE00A2609E0009401214A46504643460191294602F005FD064629
:20508C00FF2F07D05846006820B1006810B10146384688473046BDE8FE8FC046581B00202A
:2050AC0029482DE9F04308210125ADF1140DADF804100068ADF80650014601A88847254CD0
:2050CC00BDF8080060800398A06002F055F904F10C0005F095FB4FF47A76A68005F080F9FF
:2050EC00022064212A4605F0B3FC04F04BFE4FF0FF3104F1100000F0EDF91448144F056836
:20510C00B04643F698200646B0FBF5F916E005F0AFF9484606F032F90DF10201684602F0D4
:20512C00EDFF002004216A4601F076FCA08808FB00F0801BB0FBF5F006F020F92078012809
:20514C00E5D0B7FBF5F0F7E79417002074BA000040420F002810002070B52B4C2278607829
:20516C0082424BD000200121224603F005FC244D2878022802D1207805F0A6FC63782278F4
:20518C00204E980819D3900817D22878062810D1E56820693168401B4FF47A75414340F623
:2051AC00B830B1FBF5F1884207DA41F27070884203DD02F011FC2278637803F0030003286C
:2051CC001CD102F00300032818D030682569E16853409B083CBF6168A5684FF47A736D1AA1
:2051EC00684341F27071B0FBF3F0814206DA15200A2103F045F805F01BFA2278627070BD80
:20520C002005002074BA0000302300202B482DE9F8430D469C4608AF91466968BC883E883A
:20522C004B78027809784FF0000842F6232701EB0321C91B674628D0491E052917D9891F15
:20524C000CD0263933D1072E2ED8C6F10701A14298BF8CB23618083631461FE0B24223DB9D
:20526C00921BA242D8BF94B23C8040680BE0E86805F042FD80B2B04216DB801BA042D8BFB8
:20528C0084B23C80E868311809E0082E0CD8C6F10801A14298BF8CB231180F313C80484669
:2052AC00224600F05BFA06E04FF0070803E040464FF00A0838804046BDE8F883A415002010
:2052CC0041F21C3010B5C5F200000468B4F1FF3F08BF002405F0F2FC40F2844346F25C011C
:2052EC00002242F2082E012040F2801CC4F26023C4F20C011A60C4F2043E0860C4F2283C37
:20530C00CEF80000DCF8000038B140F20010C4F2203000682046FBF751FC44F20402C4F2B7
:20532C0003021068052142F24803C2F20001C4F2030320F003000143116019684FF0000E38
:20534C00C0F2391E6FF35B414EEA01000421C4F2090118600868C0F30130012809D10A68DB
:20536C004FF6FF70CFF6FC40104040F400320A60086010BD2DE9F04F09AFADF11C0D92466B
:20538C0006903C880493D7F80880059197F80490039430B1081C04D0181C18BFB8F1000FCD
:2053AC0001D1022038E01E4801780026354630E0069C04EB8504B4F800B04FF6FF7058457E
:2053CC0023D0A7780FB303990498059A05F0FCF90290D0B178080AD3CDF80090CDF804801E
:2053EC00029B01215846524600F0DEFE0643A07880080AD3CDF80090CDF804802088029B37
:20540C005246022100F0D0FE0643054801786D1CEDB2A942CCDC304607B0BDE8F08FC046E6
:20542C00E409002029482DE9F84FD0F80090EFF3118589F31188264CA068012105F052FFBE
:20544C004FF0010A4FF00008064621686769A4F81CA02068A4F81E80791A321A8A42A6EBB4
:20546C0007062DD385F311884546EF195046394605F020FF761B0546B542F6D9EFF3118B26
:20548C0089F31188E08B012804D14046394605F011FF0546B5F1FF3F06D0A169AD1BA942B6
:2054AC0038BF0D1CE91901E0A5697919284605F0FDFEA4F820A0A4F81C805D46276001E040
:2054CC00A4F81C8085F31188BDE8F88F70BA0000780100202DE9F84F0E46044605F042FF57
:2054EC00834625480068EFF3118A80F31188D4F808904E4533D01E481E4D0768002E06D437
:20550C00AF69012000FA06F807EBC60702E04FF000087F19207D012817D1204605F0C2FE05
:20552C00206C05F027FF18B1E1686868884368602869844212BF381C6F613868214605F0FB
:20554C00ADFE686848EA00006860A660C4F80C802764002E44BF00206861012028818AF390
:20556C001188584605F0EAFE4846BDE8F88FC046E80500000001002070BA0000F8B5264CF4
:20558C002068EFF3118680F3118824491D4D0B680420B0FA80F043F00403281A1F30027825
:2055AC000B60521C027086F311882068EFF3118380F311880A680820B0FA80F042F0080288
:2055CC002D1AE87F0A60401CE87783F311880E20FEF7B8FE0C480068C0F38150032814BFC6
:2055EC000020012009490A4A088017683FB9094C402020600123D36100204860F8BD01208E
:20560C00F8BDC0468F180020B43F0050FC22002004800C402C500C4070BA0000401E00203B
:20562C00F0B520480127F84201D002F033FF204D204F214EBD4206D203CD0478A40034595B
:20564C00401CA047F6E71D48002800D08047164D164FBD4202D210CDA047FAE7F0BD0325E5
:20566C001BE0416808300A1C2A400BD11A1C2A40AB4305D0046804300C600431043BF9D129
:20568C00131C05D0047801300C700131013BF9D1021C2A4001D0A84304300368002BE0D1DA
:2056AC007047C046FFFFFFFF000000000000000090C6000018C7000020C6000059C50110DB
:2056CC00F0B50446234DA7682868ADF12C0D67BB0C2000F0E9FB071C1ED0684600212422A1
:2056EC00082305F0D7FD002306976A466168ADF810301948059305F0C9FD386078B90821E6
:20570C000C22ADF82410A869ADF82620014609A88847384604F04CFC6FF0030018E0E06857
:20572C0078602069B860A7600AE080470646386805F0CCFD2069B860686801463046884785
:20574C003868616805F0CAFD386805F0C3FD00200BB0F0BD7C170020F3B00000002A4AD0A1
:20576C005FEA000C8B071CD1830722D1102A08D370B4103A78C978C0103AFBD270BC10324B
:20578C0038D0042A2CD3082A05D30C2A24BF08C908C008C908C008C908C092072AD0920FA6
:2057AC0022E00B780370491C401C521E22D08B07F7D1C30714D18307D8D0121F12D308C9A0
:2057CC0003801B0C4380001D121FF8D20AE008C903701B0A43701B0A83701B0AC370001DA5
:2057EC00121FF4D2121D05D00B780370491C401C521EF9D16046704710B50020442100F01A
:20580C008BFD002808BF002440D0214C1F200222214605F0BAF9002835D021880806000C02
:20582C0040EA2120782815D11020208021460220024604F057FC30B302202146024605F0DA
:20584C00A4F900B321880806000C40EA2120B0F5805F01D0208016E000202080214602208A
:20586C00024604F03FFC70B102202146024605F08CF940B121880806000C50EA212020806A
:20588C0008BF012400D0002405F0D2FB204610BD903B00201CB50020772100F03DFD002861
:2058AC0008BF00243FD0D0206946012205F06DF9002835D09DF80000582831D1F5206946BD
:2058CC00012205F062F900282AD09DF8000038BB55208DF8000069460122F42004F002FCCD
:2058EC00F0B1F4206946012205F04FF9C0B19DF80000552814D1B6208DF800006946012243
:20590C00E02004F0EFFB58B1F4206946012205F03CF928B19DF80000002808BF012400D032
:20592C00002405F085FB20461CBDF8B5064604F07FFC43F66435C2F200056F68044604F07B
:20594C00DEFA2A69E41B4FF47A716143090C801A48BF404240F6B83289198A4216D3062822
:20596C0014DAA968E868814210D82A6872B1401A44F24021C0F20F014143080C00EB914065
:20598C00824212D91046C82811D312E043F6AC71C5F200014868400828BF4FF4FA600DD2C7
:2059AC0009687D2001F0FF014843C82801D2C820F8BDB0F57A6F88BF4FF47A60F8BD704793
:2059CC001CB5234C401E02D0401E31D01CBD05F04DFBC00824D32078FF2823D00120694695
:2059EC0004F028F99DF80010207869B9A0B104F1080005F009FC002004F06AFA0020022223
:205A0C00014605F031F807E030B9012004F060FA04F1080005F0F6FB9DF8000020701CBDF5
:205A2C00FF2020700120FF21024605F01DF81CBD0220694604F0FEF89DF80000410001EBC2
:205A4C00C001618004F1080002F046F91CBDC046B42200202DE9F843204E0F4604464FF0F8
:205A6C00FF3106F12405284605F04CFCA946002000E0401C6FB117F82010FF2909D03268DA
:205A8C008A4204D906EB8101096E0029F1D000241CE0002020604FF0010860600546A0606A
:205AAC000EE00878636808FA00F01843606006EB82030A6808491C66204604F0D3F86D1C2B
:205ACC0027B107EB85010A78FF2AEAD1484605F00DFC2046BDE8F883007FC7679838002055
:205AEC00401E1CB502D0401E2ED01CBD05F0BEFA1C4C00091DD32078FF281CD001206946DB
:205B0C0003F006FE9DF8000030B19DF80000012816D10121217007E00020062220700146AE
:205B2C0004F08AFF4FF0FF3104F11000FFF7D2FC06E0FF2020700120FF21024604F07CFF17
:205B4C00002004F0C5FB1CBD0220694603F0E0FD9DF8002004495000091D00EBC20008803E
:205B6C001CBDC046700D0020700D00202DE9F04105460E460020442100F0CEFB002808BFED
:205B8C00002035D01B4C04200222214604F0FDFF5FEA000822D021880806000C40EA21205D
:205BAC00C0F380382080C00B18D3A11C0120022204F0EBFFA71C5FEA00080FD0B91C03204D
:205BCC00022204F0E2FF80463A78B978FB78787840EA0220288043EA0123338005F028FAA5
:205BEC00B8F1010F03D0A01C042105F0C7F84046BDE8F081903B002038B5042004F0B8FB39
:205C0C001A4C022818BF03281FD103200090164800214FF040521C2301F061FF174800689C
:205C2C00EFF3118380F3118815480421B1FA81F1401AC17F4A1E0129C27703D1206820F066
:205C4C000400206083F3118838BD094D0A48094A296803686018B2FBF3F105F03FFB2868F1
:205C6C00201805F037FB38BD00A00C40401E00205CBA0000A086010074BA000070BA0000C5
:205C8C008F18002010B51A481A490078086820F0030040F00100086002F0CEFF01F018FE4D
:205CAC000021154C154821600068C0680146022088471349134A086820F001000860106896
:205CCC00D4F8EC1FEFF3118480F311880E4B0F481A680421B1FA81F1401A42F00402C17F18
:205CEC001A60491CC17784F311884FF0FF3010BDA03B00200440034040100940A00100106A
:205D0C008C21084070BA0000401E00208F1800202DE9F0411E4987684668086804F028FD3F
:205D2C0038680024C0F810483968C1F80448D1F8200820F01000C1F8200805F0EBFA154DAF
:205D4C008046287818B1042003F0B2F92C70404605F0DCFA387AFEF73BFE06F1100005F07D
:205D6C0091FA06F12C0005F089FA307818B906F1480005F083FA06F1840004F0B1FD05F0B5
:205D8C00C9FA86F8984005F0C1FABDE8F081C046783B0020A13B0020F8B50E46307A1D4635
:205DAC00144606AF400928BF082036D23888002818BF0B2031D10846694604F0A9F90128C0
:205DCC0003D1002101202980F8BDBDF800004AF601410027401A15D0401E0BD0401E03D03C
:205DEC0038460A27288017E002202880F0680088208011E005202880F06801682160007986
:205E0C00207109E001F056FC04480C3002782A80F1682046FFF7A2FC3846F8BD081A002045
:205E2C00F8B505461E480068EFF3118780F311881C4C20684FF0805640F080002060D6F807
:205E4C008C014068014601208847D6F8B001006A014614208847286906F5C675810C14BF70
:205E6C00010C04212868406A024601209047D6F88401006823210246002090472868C06973
:205E8C00014601208847206820F4C02040F480302060206840F00100206087F31188F8BDDE
:205EAC0070BA000000200940F8B5001D84B214F0030002D0241A241DA4B204F0AFFC0146AF
:205ECC001948102C47680160C8BF8768388800221646C30BDD0319D126B984420ADD3A46B1
:205EEC00012617E01388C3189BB29C42138011DC174618469FB1001B80B20428B4BF3C889C
:205F0C00385344F400443C803F1D08E080F40040002680B2C71938880028DAD1002708467A
:205F2C0004F012FE3846F8BD84170020401E1CB502D0401E2BD01CBD05F098F81A4C4008FD
:205F4C001AD32078FF2819D00120694603F05AFE9DF8000038B900200422014604F090FDF1
:205F6C004FF0FF3100E0012104F11000FFF7B2FA9DF80000207006E0FF2020700120FF2102
:205F8C00024604F07DFD002002F0B6FD1CBD0220694603F037FE9DF8002004495000091D30
:205FAC0000EBC20008801CBDE0120020E0120020401E1CB502D0401E28D01CBD05F056F830
:205FCC00194C80081AD32078FF2819D00120694603F088FD9DF8000038B9002004220146D8
:205FEC0004F036FD4FF0FF3100E0012104F11000FFF770FA9DF8000020701CBDFF202070EB
:20600C000120FF21024604F023FD1CBD0220694603F068FD9DF8002004495000091D00EB72
:20602C00C20008801CBDC04628100020281000202DE9FE4305460E46307890460AAF022824
:20604C001AD01949DFF8649070680C681022494604F07CFA0027494610B914B3012007E058
:20606C0070681031102204F071FA70B9CCB1022029464246A04714E070684278007842F68E
:20608C00021100EB0220814201D00A2709E0398801200091424601903146284601F0F4FCD4
:2060AC0007463846BDE8FE836C19002068B7000041F2A00010B5C5F20000D0F87812036813
:2060CC000A0F03F0FF03802B28BF0023D0F878024BF69A11C0F30F344FF0FF30A14213D099
:2060EC002431A14207D04BF62031A1421DD1E2B90A3358B210BD12B1921E02D010BD0A2037
:20610C0010BD143358B210BD521E0DD0921E04D0121F04D0521E04D010BD142010BD15206B
:20612C0010BD163358B210BD0A2010BD2DE9F043ADF13C0D05F016F9184D1A4C0026804684
:20614C002D1F183C684600213C22082305F092F855F8041F6068A768069023680897002293
:20616C0005910F480493694605F080F8071C10D004F054FB8146384601F02CF948B148464B
:20618C0004F0E2FC241D761CDCD0404605F0D6F801E002F0E9FA0FB0BDE8F083781700201D
:2061AC0025AE0000A8B300002DE9F0430E4691461D4607AF80461B214FF6FF72ADF11C0D99
:2061CC0003AB04F0E9F8059038B300210091BDF80C100191FF2402947C6802460DF11203A3
:2061EC0040462946A047041C12D16889ADF81000700805D340464A4604A904F07DFA05E0AB
:20620C003B7840464A4604A904F0D4FE041C05D004A81B2104F0E6FA00E01524204607B04F
:20622C00BDE8F083002213460A46194671B510F0030F0BD0002A82BF00F8011BB2F10102D8
:20624C0010F0030FF6D1002A08BF71BD11F0FF0141EA0121042A18D341EA0141082A0FD352
:20626C000E46102A08D30C460D46B2F10F0312F00F0272C0103BFCD812F0080F18BF42C0F9
:20628C0012F0040F18BF40F8041B12F0020F18BF20F8021B12F0010F18BF017071BDFEE723
:2062AC00F8B5144686684268084602F10C05203827D0401E21D0401E1CD123781549906E01
:2062CC00194300F045FE90B93068B0F1804F14BF23220B222178E86D03F0BEFFE86D95F80D
:2062EC004D1001F07BFC207885F84D0010E04FF0FF30F8BD6FF00100F8BD002085F8640042
:20630C00F8BD29780020012908BF012085F864000020F8BD002000802DE9F84380468946AD
:20632C001648194C144A016804F11400B2FBF1F104F0E8FF00284946404608BF002018D048
:20634C00124A0F4D11702978814211D02870206804F0BAFE261D304604F03EFD28783146E8
:20636C00012804BF07482061002004F0E1FA20600120BDE8F883C046A025260074BA000086
:20638C00A23B002082B80000D83A0020A53B0020F8B50E46307A1D46144606AF400928BF3B
:2063AC00082030D23888002818BF0B202BD10846694603F0ADFE012803D10021012029803E
:2063CC00F8BDBDF800004AF681210027401A13D0401E0BD0401E03D038460A27288011E04F
:2063EC0001202880F068007820700BE002202880F0680088208005E012222A80F1682046B1
:20640C00FFF7ACF93846F8BD1FB5194B0C4601461046002289B1491E06D0491E23D1012C5A
:20642C000DD1007818701FE0082C08D1124903680E310B604068486016E0062C01D0182273
:20644C0012E0046803F10C010C608088888008240094FF240194074C029498681C33FEF7B0
:20646C0089FF024600E00222104600901FBDC046541B0020397D0000581B002070B506462B
:20648C00F088F5680B28A5F108052CDAB0880B2829DA04F0C3F9154CF28891000C3401EB89
:2064AC00C20161184968E1B104F04EFB30792870B0796870307AA870F188880000EBC10063
:2064CC002018F1684068083003F0BEF9F188880000EBC10024186068406804F007FF002022
:2064EC0070BD04F031FB6FF0020070BDEC1700207FB5194C0B46002511461A4678B1401E45
:20650C0006D0401E24D1012A0BD10878207020E0022A06D112480988401C018019E0122A2F
:20652C0001D0182515E004F10C0612223046FFF715F908200090FF230193084A0292A0683B
:20654C00314604F120032A46FEF714FF054600E00225284600907FBDB01A00209D630000B2
:20656C00B01A00202DE9FC414FF0020816460F46054602E004F088FCA619002F08BF01205D
:20658C0028D001F015FF20BB03F0CCFB08BB05F0FF04C4F58074BC4288BF3C1C8DF8008053
:2065AC008DF80350280C8DF80100280A8DF8020004F072FC6846042103F09CFB3F1B6519ED
:2065CC0028B93046214603F095FB0028D2D004F05BFC0020BDE8FC8170B500212422082360
:2065EC00ADF1280D684604F0A5FE134C01256A4629468DF8185004F1140004F097FE0F48FD
:20660C00006801464FF44070884702F0E3FD261D304604F0E1FB00203146257304F088F9FE
:20662C00074BFF221A700749206000220A7008B904F018FE0AB070BDD83A00207800001079
:20664C00A53B0020A23B0020F8B50E46307A1D46144606AF400928BF08202CD238880028D6
:20666C0018BF0B2027D10846694603F051FD012803D1002101202980F8BDBDF800004AF644
:20668C004121401A4FF000010DD0401E05D0801E03D008460A2128800CE001202880F06843
:2066AC000078207006E006202880F068026822608088A0800846F8BD10B54AF20004342149
:2066CC004FF080521C23C4F20C04204602F0F2F8012826D0204634210122002302F0EAF862
:2066EC00002808BF00201DD08020C1F200000068804703F09DFD43F6643344F24022C2F267
:20670C000003C0F20F029C681968D860041BA1EB91016243120C8A4224BF1A60012001D2CD
:20672C001960012010BDFEE71FB5174B0C4601461046002269B1491E08D0491E1FD1012CDD
:20674C0009D1134B5B1C0078187019E0012C02D1F9E7062C01D0182212E0046803F10C0109
:20676C000C608088888008240094FF240194074C029498681433FEF7FDFD024600E00222AE
:20678C00104600901FBDC046F41B002055660000F41B002038B50079184CA0B904F03EF8BF
:2067AC002178002904BF6FF00704051C13D0491EC9B2217029B904F0C7F9606802F056FFC2
:2067CC0018E0054613E004F029F805462078FF2805D16FF00604284604F0B6F90BE0401CC1
